:020000041000EA
:10E000000000022061E50010E5E300109FE500102C
:10E01000A1E50010A3E50010A5E500100000000038
:10E02000000000000000000000000000A7E5001054
:10E03000A9E5001000000000ABE50010ADE5001000
:10E04000B1E50010B3E50010B5E50010B7E500102C
:10E05000B9E50010BBE50010BDE50010BFE50010FC
:10E06000C1E50010C3E50010C5E50010C7E50010CC
:10E07000C9E50010CBE50010CDE50010CFE500109C
:10E08000D1E50010D3E50010D5E50010D7E500106C
:10E09000D9E50010DBE50010DDE50010DFE500103C
:10E0A0007DE3001085E30010E5E50010E7E50010D2
:10E0B000E9E50010EBE50010EDE50010EFE50010DC
:10E0C000F1E50010F3E50010F5E50010F7E50010AC
:10E0D000F9E50010FBE50010FDE50010FFE500107C
:10E0E00001E6001003E6001005E6001007E6001048
:10E0F00009E600100BE600100DE600100FE6001018
:10E1000011E6001013E6001015E6001017E60010E7
:10E1100019E600101BE600101DE600101FE60010B7
:10E1200021E6001023E6001025E6001027E6001087
:10E1300029E600102BE600102DE600102FE6001057
:10E1400031E6001033E6001035E6001037E6001027
:10E1500039E600103BE600103DE600103FE60010F7
:10E1600041E6001043E6001045E6001047E60010C7
:10E1700049E600104BE600104DE600104FE6001097
:10E1800051E6001053E6001055E6001057E6001067
:10E1900059E600105BE600105DE600105FE6001037
:10E1A00061E6001063E6001065E6001067E6001007
:10E1B00069E600106BE600106DE600106FE60010D7
:10E1C00071E6001073E6001075E6001077E60010A7
:10E1D00079E600107BE600107DE600107FE6001077
:10E1E000000000000000000000000000000000002F
:10E1F000000000000000000000000000000000001F
:10E200000048804761E500100348044B834202D078
:10E21000034B03B118477047C4060020C406002012
:10E22000000000000548064B1B1AD90F01EBA301A3
:10E23000491002D0034B03B118477047C4060020B1
:10E24000C40600200000000010B5064C237843B936
:10E25000FFF7DAFF044B13B10448AFF3008001234A
:10E26000237010BDC8060020000000007874011063
:10E2700008B5054B1BB105490548AFF30080BDE863
:10E280000840FFF7CFBF00BF00000000CC06002011
:10E2900078740110502A12D810B588B004460D4881
:10E2A000009000236846CDE90141CDE90323CDE983
:10E2B0000533079300F048FF20B908B010BD4FF0B8
:10E2C000FF3070470146044802F0CCF86FF00100BF
:10E2D000F3E700BF00E001407C6F011010B582B091
:10E2E00000F0EAF8022000F007F91F4801F0E2F917
:10E2F000042000F0EDFB1D480022012100F0C4FEC7
:10E3000060BB42F210711948194C00F007FF174822
:10E31000642100F015FF552301220DF10701502063
:10E320008DF80730FFF7B6FF0146124802F09AF861
:10E33000022000F0EDF8002000F0DEF8012000F0EF
:10E34000E7F8204600F0CEFA002000F0E1F80120C6
:10E3500000F0D2F8204600F0C5FAECE70146064886
:10E3600002F080F8CDE700BF00A0024000E00140CD
:10E3700020A10700B06F0110886F0110002000F08D
:10E38000E9BD00BF012000F0E5BD00BF10B50020D1
:10E3900000F002FB012000F0FFFA402000F0FCFA40
:10E3A0000D4B022218684FF4E13101F0D3F9041E3D
:10E3B00003DB00F0B9F8044608B1204610BD00F0B8
:10E3C0007BF804460028F8D1044B05484322DA6064
:10E3D00000F088FA204610BD0000002000440040F4
:10E3E000400D030000BF70474FF0FF30704700BF83
:10E3F0004FF0FF30704700BF4FF0FF30704700BF55
:10E400004FF0FF30704700BFF8B5E0B9002A19DDC2
:10E41000104D0E468F180C4602E0BB420FD01C4632
:10E42000284601F08FFAC1B22170284601F08CFA1B
:10E4300022780D2A04F10103EFD10A232370C6F1DB
:10E440000106A019F8BD01F09FFC092303604FF0FD
:10E45000FF30F8BD00200440F8B5431E012B21D841
:10E46000002A174612DD531E124E4C1ECD1814F80A
:10E47000013F0A2B0CD00F4801F06AFA0028FAD0AD
:10E480002178304601F060FAAC42F0D13846F8BD50
:10E49000084801F05DFA0028FAD00D21304601F05D
:10E4A00053FAE8E701F070FC092303604FF0FF30F6
:10E4B000F8BD00BF00200440F8B50D4B1F68A7B1A0
:10E4C00000250C4C2E46D4E9000100F015FD204635
:10E4D00000F00CFC0135002818BF6FF00706BD42A4
:10E4E00004F10C04EFD13046F8BD3E463046F8BD8D
:10E4F000C46F0110C86F0110044B00EB400003EB28
:10E50000800253F82000516800F00CBDC86F011064
:10E51000044B00EB400003EB800253F820005168ED
:10E5200000F0EABCC86F0110F8B50B4B1F6887B14B
:10E5300000240A4D2646284600F0D8FB0134002866
:10E5400018BF6FF00706BC4205F10C05F3D1304649
:10E55000F8BD3E463046F8BDEC6F0110F06F01107B
:10E56000474885464748804780B94749474A484B0E
:10E570009B1A03DD043BC858D050FBDC4549464A92
:10E5800000209142BCBF41F8040BFAE743488047A2
:10E590004348804743488047FFF7FEFFFEE7FEE71A
:10E5A000FEE7FEE7FEE7FEE7FEE7FEE7FEE7FEE743
:10E5B000FEE7FEE7FEE7FEE7FEE7FEE7FEE7FEE733
:10E5C000FEE7FEE7FEE7FEE7FEE7FEE7FEE7FEE723
:10E5D000FEE7FEE7FEE7FEE7FEE7FEE7FEE7FEE713
:10E5E000FEE7FEE7FEE7FEE7FEE7FEE7FEE7FEE703
:10E5F000FEE7FEE7FEE7FEE7FEE7FEE7FEE7FEE7F3
:10E60000FEE7FEE7FEE7FEE7FEE7FEE7FEE7FEE7E2
:10E61000FEE7FEE7FEE7FEE7FEE7FEE7FEE7FEE7D2
:10E62000FEE7FEE7FEE7FEE7FEE7FEE7FEE7FEE7C2
:10E63000FEE7FEE7FEE7FEE7FEE7FEE7FEE7FEE7B2
:10E64000FEE7FEE7FEE7FEE7FEE7FEE7FEE7FEE7A2
:10E65000FEE7FEE7FEE7FEE7FEE7FEE7FEE7FEE792
:10E66000FEE7FEE7FEE7FEE7FEE7FEE7FEE7FEE782
:10E67000FEE7FEE7FEE7FEE7FEE7FEE7FEE7FEE772
:10E68000000002204DE70010387501100000002046
:10E69000C4060020C8060020580E002051E70010D4
:10E6A000C1030110DDE200100B4A08B503461068F3
:10E6B00028B10A4903448B4207D8136008BD0848B3
:10E6C0000649106003448B42F7D901F05DFB0C232F
:10E6D00003604FF0FF3008BDE406002000F0012089
:10E6E000600E00204FF080439A6802F46062B2F539
:10E6F000206F20D011D9B2F5406F17D00F4B1049C1
:10E70000B2F5606F18BF0B464FF080420D4992681A
:10E71000C2F38212D3400B60704752B1084947F2EE
:10E720003053B2F5C06F18BF0B46EDE74FF400430E
:10E73000EAE7054BE8E74FF4E103E5E7C068780452
:10E7400000E1F505580E0020008793030020704774
:10E7500010B50A4C0A4BA3600A4800F0ABFFD4F88E
:10E76000883043F47003C4F88830BFF34F8FBFF391
:10E770006F8FFFF7B7FFFFF709FE10BD00ED00E058
:10E7800000E0001000A0024038B54FF0E023184927
:10E790009C691A6922F480320A601A69D2071FD470
:10E7A0006FF07F4405225C614FF080759C611A61B7
:10E7B000104B114A19680023A0FB010108F066FA0A
:10E7C0000E4BB0FBF5F205FB120084421A600AD82A
:10E7D0001A6801321A602544094B281A186038BD9E
:10E7E0005D690135E4E7064B201A186038BD00BFAB
:10E7F000EC060020580E002040420F0004000020CC
:10E80000F006002010B50C4C0C4B22681960002A51
:10E810000EDC08B9002010BDFFF7B6FF2368002BFF
:10E82000F8DD4FF0E022136943F002031361F1E7D2
:10E830006FF0050010BD00BF04000020E8060020B6
:10E84000F8B5174C2368002B1EDB26682EBB154B32
:10E850004FF0E0251B68AA699A421ED8124F3B6808
:10E860005BB16FF00F009847104B3E601A682A6149
:10E870004FF0FF3323600020F8BD0C4A4FF0FF3308
:10E8800012682A612360F6E7074C2368002BF2D058
:10E890000020984700232360EDE76FF00500F8BDE6
:10E8A00004000020F0060020E8060020EC0600200E
:10E8B00010B5094C236823B16FF00F00984700236F
:10E8C0002360064A064B10684FF0E0214FF0FF32FC
:10E8D00008611A6010BD00BFE8060020EC060020A9
:10E8E0000400002038B5184C2268002A29DC08B939
:10E8F000002038BDFFF748FF4FF0E02202E0136927
:10E90000DB031AD42368002BF9DC104B1A684FF094
:10E91000E0218B699342FCD80D4D2B6823B16FF039
:10E920000F00984700232B600A4B4FF0E022196834
:10E9300011614FF0FF332360DAE72368013B236066
:10E94000E0E76FF0050038BD04000020F00600206D
:10E95000E8060020EC0600203F2808D90D4A403880
:10E96000D168C0B2012383400B43D36070471F2896
:10E970004FF0804207D92038916CC0B20123834008
:10E980000B4393647047516A012383400B435362E6
:10E99000704700BF000008403F2809D90E494038A1
:10E9A000CB68C0B20122824023EA0203CB607047E9
:10E9B0001F284FF0804108D920388B6CC0B201224B
:10E9C000824023EA02038B6470474B6A0122824033
:10E9D00023EA02034B6270470000084010B5072885
:10E9E0000AD8DFE800F00C09092333475B04BDE8CF
:10E9F0001040364800F07AB96FF0020010BD4FF0B9
:10EA000080440021A36843F48023A3604FF47A700C
:10EA1000FFF7F8FE03E0FFF713FF063052D1A368BB
:10EA20005901F8D5FFF744FF002010BD00214FF435
:10EA30007A70FFF7E7FE4FF0804403E0FFF700FF36
:10EA400006303FD1A3689A00ECD4F7E74FF080443A
:10EA50000021A36843F40023A3604FF47A70FFF70A
:10EA6000D1FE03E0FFF7ECFE06302BD1A3681B01BB
:10EA7000F8D5D7E74FF080440021A36843F4801312
:10EA8000A3604FF47A70FFF7BDFE03E0FFF7D8FEF6
:10EA9000063017D1A368D800C4D4F7E74FF08044FC
:10EAA0000021A36843F40033A3604FF47A70FFF7AA
:10EAB000A9FE03E0FFF7C4FE063003D1A3689B0163
:10EAC000B0D4F7E76FF0090010BD00BF5C70011013
:10EAD00038B54FF080439D68072824D8DFE800F060
:10EAE000262323333C4B5A045D4800F0FFF8C8B995
:10EAF0004FF08042936843F46063936000214FF4C9
:10EB00007A70FFF77FFE4FF0804403E0FFF798FE36
:10EB100006304ED1A3689B04F8D5FFF7C9FEFFF776
:10EB2000E1FD002038BD6FF0020038BD4FF0804499
:10EB3000A16811F4802146D04FF08042936823F4FD
:10EB400060639360DAE74FF08042936823F4606378
:10EB500043F4C0639360D1E74FF08044A16811F49F
:10EB6000002169D04FF08042936823F4606343F43E
:10EB700000639360C2E74FF08044A16811F48011F4
:10EB800047D04FF08042936823F4606343F42063DE
:10EB90009360B3E74FF08044A16811F4003125D0B1
:10EBA0004FF08042936823F4606343F440639360C2
:10EBB000A4E7A36805F4606523F460632B43A360B6
:10EBC0006FF0090038BDA36843F48023A3604FF4BD
:10EBD0007A70FFF717FE03E0FFF732FE0630EFD141
:10EBE000A3685801F8D5FFF763FEA5E7A36843F4CF
:10EBF0000033A3604FF47A70FFF704FE03E0FFF7E1
:10EC00001FFE0630DCD1A3689A01F8D5FFF750FE4D
:10EC1000C6E7A36843F48013A3604FF47A70FFF74C
:10EC2000F1FD03E0FFF70CFE0630C9D1A368D9005F
:10EC3000F8D5FFF73DFEA4E7A36843F40023A360E3
:10EC40004FF47A70FFF7DEFD03E0FFF7F9FD0630C1
:10EC5000B6D1A3681B01F8D5FFF72AFE82E700BFF3
:10EC60005C7001103F2809D940380F49C0B2012219
:10EC700082408A608B681A42FCD170471F280AD9EB
:10EC80002038C0B201224FF0804182404A644B6C70
:10EC90001A42FCD1704701224FF0804182404A6005
:10ECA0004B681A42FCD1704700000840C10710B5FC
:10ECB000044608D4A2070BD463070ED42046BDE84F
:10ECC000104001F025B80020FFF766FEA207F3D53B
:10ECD0000120FFF761FE6307F0D54020FFF75CFEDF
:10ECE0002046BDE8104001F013B800BF70B57F4B5F
:10ECF00005689D42044637D003F580539D4220D0DD
:10ED000003F5EE2303F580639D427FD07848281AEF
:10ED1000B0FA80F04009C000FFF7C8FF744B2268CA
:10ED20009A4215D06268217A284600F04BF9D0B992
:10ED3000637A042B00F2D780DFE803F05A4C3E2FB1
:10ED400018000220FFF7B2FF694B22689A42E9D10E
:10ED5000237A012B00F0BB80022B00F0A580002B52
:10ED600056D06FF0100070BD0120D5E72B6E6268A1
:10ED700023EA02032B666B6E13436B66D5F8B8303B
:10ED800023EA0203C5F8B830594BA17A9D4239D025
:10ED90002846BDE8704000F0FFB82B6E6268134350
:10EDA0002B666B6E23EA02036B66D5F8B83023EA54
:10EDB0000203C5F8B830E7E72B6E626823EA020366
:10EDC0002B666B6E13436B66D5F8B8301343C5F8EA
:10EDD000B830D9E72B6E626813432B666B6E23EA5B
:10EDE00002036B66D5F8B8301343C5F8B830CBE7EB
:10EDF0002B6E626823EA02032B666B6E23EA020322
:10EE00006B66C1E70029ACD0002070BD042083E709
:10EE10006368384958001A010E6A00F0020002F0D7
:10EE20002002024326EA02020A628A68C3F3400310
:10EE3000034322EA03038B60637A042B91D8DFE853
:10EE400003F0261B031B030062682A49D300086AEB
:10EE500003F0100302F00106334320EA03030B62C0
:10EE600056019300086A03F0040306F0400633439A
:10EE700020EA03030B6287E71E4962680E6AD3002B
:10EE800002F0010003F0100330430343E7E7626838
:10EE9000184893005101066A03F0040301F0400191
:10EEA0000B43334303626FE76368124958001A014A
:10EEB0000E6A00F0020002F02002024332430A62AE
:10EEC0008A68C3F34003034313438B60B4E763686A
:10EED000084958001A010E6A00F0020002F02002F0
:10EEE00002433243A0E76FF0020070BD0080004093
:10EEF00000060840006C0040084A904201D000F033
:10EF000043B8074810B4046ACA0001F00101214364
:10EF100002F010030B4310BC036270470006084068
:10EF2000006C0040094A904201D000F02FB810B4A4
:10EF3000074CCA00206A02F0100201F0010142EA07
:10EF4000010320EA0303236210BC70470006084057
:10EF5000006C004000F0EEBE034A904201D000F089
:10EF600017B8024AD16170470006084000680040A7
:10EF7000034B984201D000F00DB8024BD86970479E
:10EF80000006084000680040C16170470162704798
:10EF900081647047006C704759B1012906D1D0F8DF
:10EFA000C0301343C0F8C030002070476FF002003B
:10EFB0007047D0F8C03023EA0203C0F8C030002008
:10EFC000704700BF036B13430363426005292CD8CD
:10EFD000DFE801F00A12191F2503C0F888208267B4
:10EFE000C266826000207047426142600267C26769
:10EFF000C0F8882000207047026142600267C26743
:10F00000C0F88820EEE7C0F88820C26702678260F7
:10F01000E8E7C0F88820C267C2668260E2E7C0F80D
:10F020008820826702678260DCE76FF00200704729
:10F0300000F0F6B808B5114B98420DD0104B98422D
:10F0400011D0104B984215D13820FFF785FC3420A1
:10F05000FFF708FE002008BD0D20FFF77DFC102003
:10F06000FFF700FEF6E71C20FFF776FC2020FFF7F5
:10F07000F9FDEFE76FF0010008BD00BF00D00140CF
:10F0800000E0014000F00140C0B370B504460D46F9
:10F090001646FFF7CFFF1B4B9C4212D01A4B9C42E7
:10F0A0001CD01A4B9C4226D13820FFF775FC18481B
:10F0B000FFF71CFE324629462046BDE8704000F0AE
:10F0C00049B80D20FFF768FC1248FFF70FFE3246E3
:10F0D00029462046BDE8704000F03CB81C20FFF7F0
:10F0E0005BFC0D48FFF702FE324629462046BDE88C
:10F0F000704000F02FB86FF0010070BD4FF0FF308E
:10F10000704700BF00D0014000E0014000F0014026
:10F1100038700110507001104470011000F09AB85E
:10F1200000F0E8B800F0F6B800F008B900F014B943
:10F1300000F030B900F046B900F04CB900F052B917
:10F1400000F0C0B900F052B900F0C2B900F090BAB6
:10F1500000F09EBAF8B5002857D00F46102115468A
:10F160000446FFF7EFFF064608B13046F8BD2368B6
:10F1700043F0010323602046FFF7DCFF2046FFF742
:10F18000DBFF02212046FFF7E3FF06212046FFF7C1
:10F19000DDFFDFB123681E4A43F00203944223607F
:10F1A0002FD01C4B9C420FD003F580539C4214BFC0
:10F1B0004FF0FF340224184B04EB440403EBC40368
:10F1C00001225A603046F8BD0124F4E73A46294648
:10F1D0002046FFF72DFF0E4B9C4209D003F58053CC
:10F1E0009C4210D00D4FBC4214BF4FF0FF37022796
:10F1F000094B07EB470103EBC10300225A6030467D
:10F20000F8BD3446D7E70127F2E74FF0FF36ACE709
:10F2100000D0014000E00140F806002000F001406D
:10F220000346A0B16AB9B1F5806F0DD27F29C264DF
:10F2300084BF4FF40042C264C26C0A430020DA6407
:10F2400070476FF0100070476FF0020070474FF08A
:10F25000FF30704700283FD010B4214AA1F5742335
:10F260006FF410742344934213D31E4B99422FD84A
:10F270001D4B1B685B08B3FBF1F35B089A1EB2F5EC
:10F28000FF7F03F1FF3323D8436310BC8363FFF791
:10F2900047BF154B154C1B685B08B3FBF1F14A00E7
:10F2A000A4FB01C14908A4FB0242013952080F29FD
:10F2B00002F1FF320CDC0F2A0ADC090289B2D2B259
:10F2C0000A43C26302680A4942F400420260D2E77C
:10F2D0006FF0020010BC70474FF0FF30704700BF66
:10F2E000009F240040E13300580E0020ABAAAAAAD8
:10F2F000801A06000649436B826B0868C2F3080255
:10F30000C3F3080313444008B0FBF3F0704700BF99
:10F31000580E002070B1036B13F0010F036B04D182
:10F3200043F0010303630020704743F002030363CB
:10F33000002070474FF0FF30704700BF48B1036BAB
:10F3400043F004030363036B13F00403FBD118467B
:10F3500070474FF0FF307047C8B1C1B1AAB100B5D6
:10F36000002301F1FF3E07E0C16A01335FFA81FC2F
:10F370009A420EF803C005D041688907F4D51846B3
:10F380005DF804FB10465DF804FB104670474FF033
:10F39000FF30704798B191B17AB1002301F1FF3C81
:10F3A00006E001339A421CF80310C9B2C16204D0CE
:10F3B0004168C906F5D518467047104670474FF0AA
:10F3C000FF307047C36943F08003C361C3691B0604
:10F3D000FCD47047436A43F080034362436A1B06D0
:10F3E000FCD4704781600261704700BF002865D07F
:10F3F000036843F001032DE9F041036007680368E7
:10F4000043F480630E46044607F4806703600029D6
:10F4100043D000252BE0FFF765FA236823F0800333
:10F4200023600A20FFF75EFA236813F400784FF098
:10F430000A002BD1FFF756FA236843F080032360BC
:10F440000A20FFF74FFA23689A054FF00A001DD5EE
:10F45000FFF748FA236843F0400323600A20FFF7D0
:10F4600041FA2368DB0525D40135AE4215D00A20C8
:10F47000FFF738FA236823F0400323600A20FFF7E0
:10F4800031FA2368D9054FF00A00C4D52368013545
:10F4900043F0C003AE422360E9D16FF008001FB90A
:10F4A000236823F480632360236823F0010323602F
:10F4B000BDE8F0814046002FF6D1F1E74FF0FF3074
:10F4C000704700BF036C89B219430164704700BFE5
:10F4D0002DE9F041D0E900437F2B00F2C380634B5C
:10F4E0009C42054608D003F580539C4204D003F5A6
:10F4F00080539C4240F0B08023689E0740F1AF806B
:10F5000007226FF07F412046FFF718FE2046FFF7E5
:10F5100013FE2046FFF70EFE6A690023E360636175
:10F5200042BBEA686B685B00E362236B43F0010354
:10F5300000262363202704E0A36813F4FE4F11D1B3
:10F54000EA68964219D2A3689806F5D5A968921B75
:10F5500031442046FFF7ECFDA760A36813F4FE4F8B
:10F560000644EDD0EE602046FFF7DEFD6FF00800A8
:10F57000BDE8F081EA68002AD4D10022112120469A
:10F58000FFF7DCFD6B69002B4AD0B3F5807F88BFA5
:10F59000002323622046FFF7C5FD266B16F0020606
:10F5A000FBD16B686A695B0043F00103E362002AE8
:10F5B00036D010274FF001081DE0A36813F4FE4376
:10F5C00029D1A1686A69C90713D59642A2EB060141
:10F5D0000FD9B1F5807F8CBF23622162236B43F08A
:10F5E000020323636B68C4F808805B0043F00103E7
:10F5F000E362964214D2A36813F0110FDDD029699B
:10F60000921B31442046FFF791FDA760A36813F4D5
:10F61000FE430644D5D06E612046FFF785FDA5E781
:10F62000AB6973B1236B43F002032363A368DB0769
:10F63000FCD54123A360A06810F4FE4096D1BDE83C
:10F64000F081236B43F004032363A3685A06FCD5BF
:10F65000A368DB07EAD5ECE76FF00200EFE76FF095
:10F660000600ECE76FF01000E9E700BF00D00140B2
:10F670008269D2B28A42034607D3C26922F4706219
:10F6800042EA01210020D96170476FF00200704703
:10F690008269C2F307228A42034607D3426A22F4F0
:10F6A000706242EA01210020596270476FF0020047
:10F6B000704700BF00F000B8D0F80031012223F0FD
:10F6C0000103C0F80031C0F80027D0F80031DA0398
:10F6D000FBD5D0F8003143F00103C0F80031D0F879
:10F6E0000031DB03FBD5704708B5164B984210D0AC
:10F6F000154B984214D0154B984218D0144B984291
:10F700001CD14420FFF7AEFA4420FFF725F9002072
:10F7100008BD0B20FFF7A6FA0920FFF71DF9F6E751
:10F720000C20FFF79FFA0A20FFF716F9EFE71C20DD
:10F73000FFF798FA2120FFF70FF9E8E76FF00200D2
:10F7400008BD00BF002004400030044000400440D9
:10F750000014084070B504460E461546FFF7C4FF76
:10F76000A8BB022D2DD0042D18D0204B9C421BD0BD
:10F770001F4B9C422CD01F4B9C4230D01E4B9C42B6
:10F7800023D11E48FFF7B2FA4420FFF705F92A46B5
:10F7900031462046BDE8704000F0F8B80620FFF77B
:10F7A0001DF9124B9C42E3D11548FFF79FFA09203F
:10F7B000FFF7F2F82A4631462046BDE8704000F0D7
:10F7C000E5B80520FFF70AF9CFE76FF0020070BD3A
:10F7D0000C48FFF78BFA0A20FFF7DEF8D7E70A4854
:10F7E000FFF784FA2120FFF7D7F8D0E70020044084
:10F7F000003004400040044000140840087001102C
:10F800002C7001102070011014700110314B9842BF
:10F8100010B5044615D003F58053984211D003F576
:10F82000805398420DD003F57533984206D10523D5
:10F83000022A436114D0042A32D08AB16FF0020048
:10F8400010BD042AFAD0204600F0D8F80028F7DDD1
:10F85000236843F40043236023681B03FCD510BDD9
:10F860004FF4E103B3FBF1F301FB03F2C2F5E10254
:10F8700013B1B2EB510F00D90133174A136110686D
:10F8800000F44030B0F5803F05D0136813F4403FDA
:10F89000D4D14FF4E100104B1B69B0FBF3F0D5E776
:10F8A000036843F4803303600368B1F5166F43F4D3
:10F8B000001303600AD9002343614FF48033B3FB84
:10F8C000F1F301FB03F2C2F58032D1E7012343617A
:10F8D000F3E700BF0020044000140840124B984298
:10F8E0001CD003F58053984218D003F580539842FA
:10F8F00014D003F57533984212D1036803F44033F2
:10F90000B3F5803F05D0036813F4403F08D14FF4AE
:10F91000E103064A1069B3FBF0F0704700F0BAB893
:10F920006FF00200704700BF002004400014084040
:10F9300000F0F0B800F00EB900F030B900F084B972
:10F9400000F09EB900F008B800F012B800F0B6B9A7
:10F9500000F0B8B900F0BCB910B504462046FFF776
:10F96000F5FF0028FAD02046BDE81040FFF7E6BFBB
:10F9700038B504460D462046FFF7EAFF0028FAD0C6
:10F9800029462046BDE83840FFF7DABF1A4B9842B7
:10F9900070B504460D4616460BD003F580539842C9
:10F9A00007D003F58053984203D003F5753398428E
:10F9B0001FD101212046FFF7CDFF00B170BD082106
:10F9C0002046FFF7B5FF0028F8D101462046FFF793
:10F9D000B3FF0028F2D101462046FFF7ABFF002815
:10F9E000ECD1324629462046FFF710FF00EAE070CE
:10F9F00070BD6FF0020070BD00200440224B9842A1
:10FA00000BD003F58053984207D003F580539842FA
:10FA100003D003F57533984232D10523012A10B47F
:10FA2000436123D0022A14D01AB16FF0020010BC37
:10FA30007047164B1A685208B2FBF1F301FB132210
:10FA400013B1B2EB510F00D9013310BC0361FFF7C2
:10FA500045BF04684FF4E10344F40034B3FBF1F311
:10FA600001FB03F2C2F5E1020460E9E70468084A19
:10FA7000B2FBF1F344F48034046001FB1322DFE7AE
:10FA80006FF00200704700BF00200440580E0020B5
:10FA9000C06878041C4B98420BD003F58053984201
:10FAA00007D003F58053984203D003F5753398428D
:10FAB00022D1036803F44033B3F5803F17D00368C5
:10FAC00013F4403F0CD0036803F44033B3F5003F18
:10FAD00008BF4FF4E10312D10069B3FBF0F07047A7
:10FAE0000A4B00691B685B08B3FBF0F07047084BDA
:10FAF0000069B3FBF0F070476FF0020070470368D5
:10FB00006FF00200704700BF00200440580E002034
:10FB1000C06878040E4A904203460BD002F580522A
:10FB2000904207D002F58052904203D002F5753220
:10FB300090420AD10539032907D81A6822F4406295
:10FB400042EA812200201A6070476FF0020070477D
:10FB500000200440104B98420BD003F5805398428C
:10FB600007D003F58053984203D003F575339842CC
:10FB700008D151B1012905D1036843F480530360D2
:10FB8000002070476FF002007047036823F4805331
:10FB900003600020704700BF00200440294B9842BA
:10FBA0000BD003F58053984207D003F58053984259
:10FBB00003D003F57533984241D104293FD8DFE8DB
:10FBC00001F0111724310300036843F010030360B0
:10FBD000036843F020030360036843F040030360BD
:10FBE00000207047036823F0100303600020704773
:10FBF000036843F010030360036823F020030360ED
:10FC0000036823F040030360EAE7036843F010034E
:10FC10000360036823F020030360036843F040039C
:10FC20000360DDE7036843F010030360036843F0FB
:10FC300020030360036823F040030360D0E76FF004
:10FC400002007047002004400C4B98420BD003F593
:10FC50008053984207D003F58053984203D003F5B0
:10FC60007533984204D14368DB0604D4006A7047B8
:10FC70006FF0020070476FF00C00704700200440E6
:10FC80000D4A904203460BD002F58052904207D0B5
:10FC900002F58052904203D002F57532904205D1B0
:10FCA000586810F0800004D1196270476FF00200AC
:10FCB00070476FF00B007047002004404068C0F3AD
:10FCC000032070474068C0F30330C0F1080070475C
:10FCD0000E4A904203460BD002F58052904207D064
:10FCE00002F58052904203D002F57532904209D15C
:10FCF0004A1E072A06D81A6822F00F021143002074
:10FD0000196070476FF00200704700BF0020044088
:10FD100010B5064C217831B905484FF4007200F057
:10FD2000FDFA01232370002010BD00BF4007002012
:10FD3000440900200328F8B59ABF104B53F820500F
:10FD4000002507462846FFF713F9044601462846D2
:10FD5000FFF702F98CB10A4E0A4D06EBC71605EB08
:10FD6000C715E30703D52B680BB1306898476408C3
:10FD700006F1040605F10405F3D1F8BD6870011021
:10FD80004407002044090020014B1868704700BF59
:10FD90001C0400202DE9F04F01F10B05162D85B054
:10FDA000064624D8102900F2B18000F06FFB102520
:10FDB00018234FF0020CBA4F3B44A3F108025C68D1
:10FDC000944200F022816368E268A16823F0030393
:10FDD000CA602344304691605A6842F001025A607A
:10FDE000083400F059FB204605B0BDE8F08F35F02F
:10FDF000070500F18B80A94200F2888000F046FBE5
:10FE0000B5F5FC7FC0F073816B0A00F08380042B92
:10FE100000F22281AB0903F1390C03F1380E4FEAED
:10FE2000CC039F4F3B44A3F108005C68A04207D17C
:10FE30000DE0002AE16880F2E280884207D00C469B
:10FE4000636823F003035A1B0F2AF2DDF446DFF840
:10FE500054823C69444500F0BF80636823F0030985
:10FE6000A9EB05030F2B00F34781002BC7E904889A
:10FE700080F23181B9F5007FD7F804E080F0CC80C2
:10FE80004FEAD90101314FEA5919012303FA09F365
:10FE900057F83120A2604EEA030E07EBC103083B7E
:10FEA000E360C7F804E047F83140D4604FEAAC03A0
:10FEB00001209840704534D810EA0E0F07D12CF07D
:10FEC000030C400010EA0E0F0CF1040CF9D007EB04
:10FED000CC0A5246E146D1680EE04B6823F003039A
:10FEE000A3EB050EBEF10F0F0C46C96800F3C180ED
:10FEF000BEF1000F80F2E2808A42EED109F10109E1
:10FF000019F0030F02F10802E5D121E10C2333605F
:10FF1000002468E74FF400734FF0400C4FF03F0EA1
:10FF20007FE7BC68636823F00309A94503D3A9EB05
:10FF300005030F2B53DC5C4BDFF870B11B68082006
:10FF400003F1100800F080FADBF800300190013373
:10FF5000A84404EB090205D008F1FF38804443426D
:10FF600003EA080841463046029200F017FEB0F15D
:10FF7000FF3F029A824600F0DC80824200F2D78086
:10FF80004B4B01991868404401F1FF3118608446D9
:10FF900040F0FC801AEA010F40F0F880D7F808A082
:10FFA000C84448F00102CAF80420424B1968814253
:10FFB00038BF1860404B1968814238BF18605446FA
:10FFC00022F00308A845A8EB050301D30F2B06DC9C
:10FFD000304600F061FA9BE7D7F804E066E7621963
:10FFE00043F0010345F0010565603046BA60536097
:10FFF00000F052FA0834204605B0BDE8F08FA26840
:020000041001E9
:100000002344D16030468A60E6E6DC68A3427FF490
:10001000DAAE0CF1020C1AE7B9F5206F4FEA59225B
:100020007ED3142A00F2158102F15C03DB005B32FF
:10003000F918FB580839994203D1F0E09B689942BE
:1000400004D05A6822F003024A45F7D8D968C4E9B7
:1000500002318C60DC6029E7142B6DD9542B00F23F
:1000600001812B0B03F16F0C03F16E0E4FEACC03F1
:10007000D7E63046A668621945F001056560F16073
:100080008E604EF00101C7E90422C2F80880C2F870
:100090000C80516044F803E000F0FEF90834A2E659
:1000A0001000002018000020740B00200800002021
:1000B000440B0020700B00206C0B002023443046C2
:1000C0005A6842F001025A6054F8083FD9608B60C8
:1000D00000F0E2F987E6A1443046D9F8043043F055
:1000E0000103C9F80430083400F0D6F97BE64FEA82
:1000F000D50C05F108035EE6621943F0010145F0F5
:10010000010565603046C7E90422C2F80880C2F8DC
:100110000C80516044F8093000F0BEF9083462E602
:100120004FEA991202F13903DB00383280E7BC4212
:1001300024D0BC68626843E703F15C0C03F15B0EFA
:100140004FEACC036DE65AF80839534540F0D880A1
:100150001CF0030F0CF1FF3CF5D17B6823EA000390
:100160007B60400098423FF6DCAE18B9D9E640000B
:1001700009F104091842FAD0CC46A8E6614B01996E
:10018000186808EB000C0139C3F800C0DBF8000068
:1001900001301BBFAAEB02026244CBF800A01A6038
:1001A0001AF00702CDE9022342D0C2F10802019BF6
:1001B0009244D044134408EA01001A1A02EA010BDF
:1001C0005946304600F0EAFC421C039B7AD0A0EB73
:1001D0000A0000EB0B081868C7F808A048F00102F5
:1001E0005844BC42CAF8042018603FF4DEAEB9F1AE
:1001F0000F0F42D96168A9F10C0222F0070201F049
:10020000010111436160A1184FF0050C0F2AC1F8DC
:1002100004C0C1F808C04AD8DAF80420C5E6921034
:10022000012000FA02F24EEA020EC7F804E00EE7DF
:10023000019B0AEB08020A409A1A02EA010B59468E
:10024000304600F0ABFC431C039BC0D1DDF808B086
:10025000C1E7542A15D84FEA193202F16F03DB00C7
:100260006E32E5E6B3F5AA7F15D8EB0B03F1780CF7
:1002700003F1770E4FEACC03D3E50123CAF804302B
:10028000A6E6B2F5AA7F25D84FEAD93202F1780363
:10029000DB007732CCE640F25452934225D8AB0CC7
:1002A00003F17D0C03F17C0E4FEACC03B9E5304637
:1002B00004F10801019300F02BFB019BD7F808A083
:1002C0001868A9E7029A083A9044A8EB0A084FF088
:1002D000000B80E740F254539A420DD84FEA9942FE
:1002E00002F17D03DB007C32A2E64FF47E734FF017
:1002F0007F0C4FF07E0E94E54FF47E737E2297E6DE
:100300007B682EE7440B0020024B13B1024800F03B
:10031000C9B870470000000011040110830730B510
:1003200047D0541E002A3ED0CAB2034601E0013C29
:1003300039D303F8012B9D07F9D1032C2CD9CDB269
:1003400005EB05250F2C05EB054535D9A4F1100269
:1003500022F00F0C03F1100EE6444FEA121C1A466D
:10036000156055609560D56010327245F8D10CF17A
:10037000010214F00C0F03EB021204F00F0C13D067
:10038000ACF1040323F003030433134442F8045B89
:100390009A42FBD10CF003042CB1C9B21C4403F8FF
:1003A000011B9C42FBD130BD64461346002CF4D1A6
:1003B000F9E703461446C0E71A46A446E0E700BF43
:1003C00070B50F4B0F4DAB42A3EB050607D0B6102F
:1003D000002455F8043B01349847A642F9D807F0A9
:1003E0003FF8094D094B5E1BAB424FEAA60606D00B
:1003F000002455F8043B01349847A642F9D870BD53
:10040000B8060020B8060020B8060020C00600206C
:1004100038B5074D074C2C1BA41005D0013C55F8EE
:10042000043D9847002CF9D1BDE8384007F01EB8CC
:10043000C4060020C0060020704700BF704700BF00
:10044000704700BF704700BF082802D14FF48050AA
:10045000704708B5FFF798FC162303604FF0FF3094
:1004600008BD00BF0FB400B5074983B004AB0868EE
:1004700053F8042B8168019300F058FD03B05DF838
:1004800004EB04B0704700BF1C0400200148FFF7D4
:10049000D7BF00BF7C0B00200148FFF7D3BF00BFD0
:1004A0007C0B0020002301461A46184603F0FEBBD1
:1004B000024A0349034800F015BD00BF4005002073
:1004C0008D3E0110200400200C4B4168994210B56C
:1004D000044601D003F0DAFCA168094B994202D02E
:1004E000204603F0D3FCE168064B994204D0204635
:1004F000BDE8104003F0CABC10BD00BF880B00204F
:10050000F00B0020580C00202DE9F843314C324B01
:100510003248DFF8CC90DFF8CC80334F18600025EC
:1005200029460423082204F15C00304EE360C4E94C
:100530000055C4E90455A5606566A561FFF7EEFEA8
:1005400004F15800C4E90749C4E90987E662FFF7E6
:1005500073FF2946264B6367082204F1C400C4E9EF
:100560001A55C4E91E552567C4F8CC50C4F880500C
:10057000FFF7D4FE04F1680304F1C000C4F884302E
:10058000C4E92298C4E92476FFF756FF194BC4F852
:10059000DC30294604F596700822C4E93455C4E9D4
:1005A0003855C4F8D850C4F83451C4F8E850FFF7AF
:1005B000B5FE04F1D003C4E93D87C4F8F09004F51A
:1005C0009470C4F8FC60C4F8EC30BDE8F843FFF761
:1005D00033BF00BF880B0020C00C0020B104011005
:1005E0000D0B0110310B0110710B0110950B011057
:1005F000090001001200020010B504460A48FFF786
:100600001FFF636B23B9094B094A1B68626323B15F
:10061000BDE810400448FFF715BFFFF775FFBDE8C0
:1006200010400148FFF70EBF840B0020C00C0020D3
:10063000C90401100148FFF703BF00BF840B00206D
:100640000148FFF7FFBE00BF840B0020844641EA4B
:10065000000313F003036DD1403A41D351F8043B3A
:1006600040F8043B51F8043B40F8043B51F8043B8C
:1006700040F8043B51F8043B40F8043B51F8043B7C
:1006800040F8043B51F8043B40F8043B51F8043B6C
:1006900040F8043B51F8043B40F8043B51F8043B5C
:1006A00040F8043B51F8043B40F8043B51F8043B4C
:1006B00040F8043B51F8043B40F8043B51F8043B3C
:1006C00040F8043B51F8043B40F8043B51F8043B2C
:1006D00040F8043B51F8043B40F8043B403ABDD29B
:1006E000303211D351F8043B40F8043B51F8043B3D
:1006F00040F8043B51F8043B40F8043B51F8043BFC
:1007000040F8043B103AEDD20C3205D351F8043BCB
:1007100040F8043B043AF9D2043208D0D2071CBF97
:1007200011F8013B00F8013B01D30B8803806046C0
:10073000704700BF082A13D38B078DD010F0030336
:100740008AD0C3F10403D21ADB071CBF11F8013BA6
:1007500000F8013B80D331F8023B20F8023B7BE7F5
:10076000043AD9D3013A11F8013B00F8013BF9D220
:100770000B7803704B7843708B78837060467047BA
:1007800030B490F800F020F007016FF0000C10F08A
:10079000070491F820F040F048804FF000046FF01B
:1007A0000700D1E9002391F840F000F1080082FA37
:1007B0004CF2A4FA8CF283FA4CF3A2FA8CF34BBB02
:1007C000D1E9022382FA4CF200F10800A4FA8CF27B
:1007D00083FA4CF3A2FA8CF3E3B9D1E9042382FA49
:1007E0004CF200F10800A4FA8CF283FA4CF3A2FA5E
:1007F0008CF37BB9D1E9062301F1200182FA4CF296
:1008000000F10800A4FA8CF283FA4CF3A2FA8CF3FC
:10081000002BC6D0002A04BF04301A4612BAB2FA1E
:1008200082F200EBD20030BC7047D1E9002304F023
:100830000305C4F100004FEAC50514F0040F91F858
:1008400040F00CFA05F562EA05021CBF63EA0503F5
:1008500062464FF00004AAE72DE9F8430646082057
:100860008946FFF7F1FDDFF89C8005463046FFF72B
:100870000DFED8F808305F6827F00307A7F11104D0
:10088000A4EB09042C44B4FBF5F4013C05FB04F48F
:10089000A54208DC0021304600F080F9D8F8083085
:1008A0003B44984205D03046FFF7F6FD0020BDE8F6
:1008B000F8836142304600F071F901300FD0124ADE
:1008C000D8F808303F1B47F001075F6013683046D7
:1008D0001B1B1360FFF7E0FD0120BDE8F88300213A
:1008E000304600F05BF9D8F80820831A0F2BDADDC8
:1008F00043F001035360054B03491B68C01A0860AD
:10090000D1E700BF10000020440B002008000020A9
:1009100000297CD0F8B50C460646FFF7B7FD54F821
:10092000043C774FA4F1080523F001016818D7F8BB
:1009300008C04268844522F0030200F08380DB0790
:10094000426000EB020C33D454F8084CDCF804305D
:100950002D1B2144AC6807F1080C644503F001032A
:1009600064D0D5F80CE0C4F80CE0CEF80840002BB9
:1009700000F0818041F001036B600160B1F5007F00
:1009800022D27868CB080122490901338A40024308
:1009900057F833107A6007EBC302083AC5E9021230
:1009A00047F83350CD603046BDE8F840FFF774BDDE
:1009B000DCF80430DB072BD541F00103B1F5007FF3
:1009C00044F8043C0160DCD3B1F5206F4FEA5123B9
:1009D00053D28B0903F1390003F13802C300F81830
:1009E000FB580838984203D163E09B68984204D0D2
:1009F0005A6822F003028A42F7D8D868C5E9023063
:100A00008560DD603046BDE8F840FFF745BD7047C2
:100A1000114407F1080C836863453FD0C268DA606F
:100A2000936041F001036B606950A7E7002B61D12F
:100A30000A44D0E90213CB60996042F001036B6075
:100A4000AA50B0E70A44D90707D454F8083CED1A75
:100A50001A44D5E90213CB60996042F001036B6040
:100A6000284BBD601B6893429DD8274B30461968C0
:100A7000FFF7F2FE97E71144CDE7142B08D9542B6A
:100A80001FD80B0B03F16F0003F16E02C300A6E742
:100A900003F15C0003F15B02C300A0E741F0010336
:100AA0003D617D61C5F808C0C5F80CC06B60695038
:100AB00079E779689210012404FA02F20A437A6015
:100AC0009CE7B3F5AA7F06D8CB0B03F1780003F1BE
:100AD0007702C30083E740F25452934206D88B0C4E
:100AE00003F17D0003F17C02C30078E74FF47E73CD
:100AF0007E2274E741F001036B60016053E700BFA1
:100B0000100000200C000020740B002010B50C46D3
:100B1000B1F90E1004F020FE002803DB236D03441E
:100B2000236510BDA38923F48053A38110BD00BFAA
:100B30002DE9F0410C46B1F90C101F46CB050546D6
:100B400016460BD421F48051A1813B46B4F90E1016
:100B500032462846BDE8F04100F0AEB9B4F90E10B7
:100B60000223002204F0E2FDB4F90C10EAE700BF12
:100B700010B50C46B1F90E1004F0D8FDB4F90C30E4
:100B8000421C0EBF23F4805343F480532065A3819D
:100B900010BD00BFB1F90E1004F06EBA38B5074DA4
:100BA0000022044608462A60FDF77EFD431C00D063
:100BB00038BD2B68002BFBD0236038BD540E0020BD
:100BC0009368002B00F0F6802DE9F04FB1F90CC0CE
:100BD0001CF0080F83B0904681460C4631D00B695B
:100BE0007BB31CF00207D8F8006038D00027D4F897
:100BF00024B0E169DFF8BCA23D4655452B463A4694
:100C000028BF53464846C5B1D847002840F3C8809E
:100C1000D8F808301B1A07442D1AC8F80830002BE2
:100C200000F0B48055452B46D4F824B0E16928BFC4
:100C300053463A464846002DE6D1D6E900750836B7
:100C4000DBE72146484603F081F9002840F0AD80FB
:100C5000B4F90CC0D8F800601CF00207C6D11CF033
:100C6000010A63D12368A168574618468B46002FB6
:100C700058D01CF4007F00F0B180B9420A4600F25F
:100C8000DD801CF4906F2FD0216962695D1A02EB40
:100C9000420202EBD2726B1C52103B44934292BF51
:100CA00093469B461A461CF4806F00F0E68011467E
:100CB0004846FFF76FF8002800F0F5802A462169C2
:100CC0000190FFF7C3FCA289019B22F4906242F0DD
:100CD0008002A2815819ABEB0505C4F814B023615A
:100CE000A5602060BB463A465146019203F01EF8CB
:100CF000A1682368019AA1EB0B011A443D46A1604B
:100D000022600027D8F808305B1BAA44C8F80830D6
:100D1000002B3BD02368A168B4F90CC018468B4661
:100D2000002FA6D1D6E900A708369EE73846BB4675
:100D30003D46002D40D0002845D03A46D4E904C3B2
:100D40002068A168AA4228BF2A46604504D901EB61
:100D5000030A524500F38280934272DCE169D4F8C1
:100D600024C05A464846E047B0F1000A18DDB7EB08
:100D70000A070FD00120D8F80830A3EB0A03D344A8
:100D8000A5EB0A05C8F80830002BD2D1002003B02B
:100D9000BDE8F08F2146484604F014FA0028EAD056
:100DA000B4F90C3043F04003A3814FF0FF3003B09F
:100DB000BDE8F08F00207047756833460836002D77
:100DC000FAD0D3F800B02A460A21584604F028FA8F
:100DD000002865D00130A0EB0B07AEE722699A42EC
:100DE00014D36269BA4211D86FF00043BB4228BFE6
:100DF0003B46656A93FBF2F3E16902FB03F3484665
:100E00005246A847051ECBDD7F1B7BE7B94228BFB2
:100E100039460D4618460A46514602F087FFA1683A
:100E20002368491B2B44A16023600029ECD1214693
:100E3000484604F0C7F90028E6D0B1E7BB463A4679
:100E400052E75946019202F071FF019AA3689B1A7A
:100E5000A360236813442360924688E759465246AC
:100E600002F064FF2368534423602146484604F09F
:100E7000A9F900283FF47BAF92E7484604F058FAFE
:100E8000034600287FF426AF21694846FFF740FD5E
:100E9000B4F90C300C2223F08003C9F8002081E75C
:100EA0006A1C17464AE70C22B4F90C30C9F8002036
:100EB00078E700BF00FCFF7F38B50C46084D84463C
:100EC000114620461A4600232B606446FDF7C4FAFB
:100ED000431C00D038BD2B68002BFBD0236038BDED
:100EE000540E00202DE9F84380460F4616464FF079
:100EF0000009D6E90154013D11D4A389012B05F164
:100F0000FF3508D9B4F90E300133214603D04046ED
:100F1000B84749EA00096B1C04F16804EDD1366852
:100F2000002EE6D14846BDE8F88300BF2DE9F04F1A
:100F3000DFB01C4607919146834602F0A3FF036889
:100F400019931846FFF71CFC0822189000212EA8C0
:100F50000D94FFF7E3F9BBF1000F04D0DBF8343058
:100F6000002B01F07F80079B5A6EB3F90C30D50738
:100F700002D4980540F19F86990407D407994A6ED8
:100F800043F4005322F400528B814A661A0740F161
:100F9000CC80079A1269002A00F0C78003F01A0279
:100FA0000A2A00F0D1800023CDE93333CDE91B3389
:100FB000CDE91D3313931A930A9300240023CDE93E
:100FC000163435AA32929046CDF820B04D46089F8F
:100FD0002E468D4BD3F8E44002F04EFF03462EA878
:100FE000009032462AA93846A047002800F0CB805E
:100FF000C0F2C1802A9A252A034601D01E44E8E7A0
:10100000771B044640F0C28000238DF89F3099463C
:101010000B934FF0FF3273780992741C0134A3F1E3
:1010200020025A2A00F2F280DFE812F0C702F00034
:10103000F000C302F000F000F0006A00F000F000E1
:101040007D02A002F0008802A902F000A5025B0068
:101050005B005B005B005B005B005B005B005B00B8
:10106000F000F000F000F000F000F000F00071017E
:10107000F00008022203710171017101F000F0001B
:10108000F000F0001E03F000F000DA02F000F000C3
:10109000F0002602F0000B03F000F0001707F0004C
:1010A000F000F000F000F000F000F000F00071013E
:1010B000F000080258027101710171019602580294
:1010C0000402F0008C02F0004D033F073B030402D2
:1010D000F00026027D003A07F000F0004307F00020
:1010E0007D00A3F13002002114F8013B01EB8101E6
:1010F00002EB4101A3F13002092AF5D90B918EE7E9
:10110000089F384602F0BEFE43681D931846FFF75D
:1011100037FB1E900646384602F0B4FE83681B93E8
:10112000002E40F02186237878E7079D584629460F
:1011300002F00CFF002841F0A683B5F90C3003F053
:101140001A020A2A7FF42FAF0799B1F90E20002A5C
:10115000FFF629AF4A6ED50702D4980541F1BF8149
:10116000079923464A46584601F004FD0A900A981A
:101170005FB0BDE8F08F082200212EA8FFF7CEF85F
:1011800001231E4425E7771B044611D0349B3B44C2
:101190003493339B0133072BC8E90057339313DC97
:1011A00008F108080A9B3B440A93002C7FF42CAFFB
:1011B000349BDDF820B0002B41F0D680079B002245
:1011C000B3F90C30339212E0DDE9071032AA01F0D6
:1011D0004DFD48B90DF1D408E4E7BB460C9B1BB1AB
:1011E0000C995846FFF794FB079BB3F90C30079A0C
:1011F000526ED40740F11481590601F150830A98C8
:101200005FB0BDE8F08F00BF4C050020CDE90E3483
:10121000002BCDD000228DF8143101238DF89F20B2
:1012200006930C929B46099214921092129245AD2D
:1012300019F0020302D006990231069119F08407D1
:10124000349C05D10B9906980E1A002E00F3A78046
:1012500082B10122C8F80420339A013201340DF121
:101260009F01072A34943392C8F8001000F3E183F9
:1012700008F1080883B1339B28AA01330234C8F867
:101280000020072B4FF0020234943393C8F8042057
:1012900000F3DD8308F10808802F00F0BE82099B6F
:1012A000A3EB0B06002E00F3FD8219F4807F40F0C3
:1012B0001982339BC8F8005001335C44072BC8F8EF
:1012C00004B03494339300F34D8308F1080819F007
:1012D000040F05D00B9B069A9D1A002D00F3C383C3
:1012E000DDE90A3206998A42ACBF9B185B180A9363
:1012F000002C40F00F83002333930C9B1BB10C99FF
:101300000898FFF705FB0DF1D4080F9D5FE6CDE9C6
:101310000E340D9B073323F00703F3E802670D93A8
:1013200027F0004323932296DDE922ABA84B4FF030
:10133000FF3250465946CDE9166705F069FC002892
:1013400040F03085A24B4FF0FF325046594605F031
:1013500041FC002840F02685002200233046394613
:1013600005F02EFC002841F00F819DF89F20994D3B
:10137000994B29F080090E994729C8BF1D460023C3
:1013800003210C9306918B460993149310931293A7
:10139000002A3FF44DAF069B0133069348E7102E19
:1013A000339A41F33D828D482195CDE91F3721467F
:1013B000079D089C15904FF0100A074604E0103E68
:1013C000102E08F1080816DD01321031072AC8E98D
:1013D000007ACDE93321F2DD32AA294620460DF10B
:1013E000D40801F043FC002840F03686103E102E51
:1013F000DDE93321E8DCDDE91F37219D0C460132B0
:101400001599C8F800103444072ACDE93324C8F8E8
:10141000046000F310869DF89F2008F1080817E784
:1014200098053FF5E9AE079CA06DFFF70BF8B4F9FE
:101430000C30E1E6237849F02009EFE50D9A432BC3
:10144000CDE90E3402F1040400F0628519F0100FAA
:1014500040F05E850D9B1B688DF8143101230693C7
:101460009B4645AD00220D948DF89F200C92099269
:10147000149210921292DBE60D9E56F8045BCDE9B1
:101480000E3400238DF89F30002D00F030850E9B28
:10149000532B00F0018619F01003129340F0FC85E5
:1014A000099B5A1C00F06A8712991A46284603F0D5
:1014B000B7FE0C90002801F0C5820C9B0D96A3EBA3
:1014C000050B129B09932BEAEB71149310930C9369
:1014D00073239DF89F2006910E9359E719F0200F72
:1014E000CDE90E3400F0CC800D9B073323F00703C9
:1014F0001A46596852F8083B0D920A460029C0F274
:1015000025840999013100F0858253EA020129F00E
:10151000800440F08082099A002A40F08182A1462E
:1015200093465EAD50E10D9B53F8042B0B92002ABD
:1015300080F2CE830B9A0D9352420B92237849F09E
:1015400004096BE523786C2B03BF637849F020090D
:10155000013449F0100961E52378682B03BF6378F3
:1015600049F40079013449F0400957E52B238DF8FF
:101570009F30237852E5237849F080094EE52146D3
:1015800011F8013B2A2B01F0DB82A3F13002092A7A
:101590000C4698BF002101F2728114F8013B01EB67
:1015A000810102EB4101A3F13002092AF5D9099129
:1015B00035E5237849F0010930E59DF89F2023782F
:1015C000002A7FF42BAD20228DF89F2026E500BF56
:1015D000FFFFEF7F787001107C700110CC7001105C
:1015E000CDE90E3449F0100919F0200200F05483BF
:1015F0000D9B073323F0070319465A6851F8083B3F
:101600000D9129F4806400210020099D8DF89F0030
:101610006F1C00F0C28053EA020024F0800940F001
:10162000BB80002D40F02385002940F0968414F003
:10163000010B00F0518330238DF877310DF27715CF
:10164000C2E0CDE90E3449F0100414F0200200F09D
:1016500015830D9B073323F0070319465A6851F889
:10166000083B0D910121CFE7237849F00809D5E423
:1016700049F0100919F0200FCDE90E347FF434AF92
:101680000D9A19F0100F52F8043B0D9240F0598357
:1016900019F0400F00F0518343F3C03211461BB2E2
:1016A0002CE70D9A0F9452F8043B0D9247F6300246
:1016B000ADF8A0207820B14A1A9249F00204002225
:1016C00002210E90A0E719F0200F0F9400F059832B
:1016D0000D9B0A9A1B681A60D2175A600D9B04333F
:1016E0000D9312E60E9B652B40F34E81DDE916014A
:1016F0000022002305F05AFA002800F0EE81339B07
:101700009F4AC8F80020013301340122072B34948A
:101710003393C8F8042000F3AF8408F10808299B2C
:10172000139A934280F2CF82189B199A1C44C8E9FD
:101730000023339B34940133072B339300F3CB8383
:1017400008F10808139B5D1E002D7FF7C0AD102D1A
:10175000339B40F3FA848B4F1597DDE907AB1026D6
:1017600005E008F10808103D102D40F3F084013326
:101770001034072BC8E90076CDE93334F1DD32AA05
:101780005146584601F072FA00287FF427ADDDE992
:1017900033340DF1D408E6E74C46012900F03B81D3
:1017A00002295EAD1ED11A9803F00F011B09415C9E
:1017B00005F8011D43EA0273120953EA0201F3D14D
:1017C0005EABA146A3EB050B09999DF89F205945F7
:1017D0004FF00003B8BF59460C9306911493109331
:1017E0001293D5E503F00701DB0843EA4273D20800
:1017F000303153EA0206284605F8011DF2D1E6070A
:10180000DED53029DCD03023023805F8013C5EAB50
:10181000A146A3EB000B0546D6E70B9B069A9E1A42
:10182000002E7FF73CAD102E339B41F3AD80554821
:10183000DDF820A01590214610271A46044604E042
:10184000103E102E08F1080816DD01321031072A6B
:10185000C8E90047CDE93321F2DD079932AA5046A5
:101860000DF1D40801F002FA002840F0F883103E90
:10187000102EDDE93321E8DC0C4613460133159ABE
:10188000C8F800203444072BCDE93334C8F804608D
:1018900000F31483099BA3EB0B06002E08F1080844
:1018A0007FF703AD374A339B1592102E23DD224676
:1018B0004FF0100ADDE9074704E0103E102E08F152
:1018C000080817DD01332F491032072BC8E9001A29
:1018D000CDE93332F1DD32AA2146384601F0C6F9AE
:1018E00000287FF47AAC103E102EDDE933320DF182
:1018F000D408E7DC14460133159AC8F800203444B4
:10190000072BCDE93334C8F8046000F3AA8108F14D
:101910000808CAE4DDE9071032AA01F0A7F9002897
:101920003FF4E9ACDDF820B058E4189B19991C4449
:10193000C8E90013339B34940133072B339300F32E
:10194000BF8508F10808002AC0F2AE87139AC8F8CC
:10195000005001331444072BCDE93334C8F8042078
:101960007FF7B3ACDDE9071032AA01F07FF9002858
:10197000D8D1349C0DF1D408A9E400BF88700110BF
:10198000B8700110BC700110139B339E012B04F141
:10199000010406F1010608F1080740F31D81012347
:1019A000072ECDE93364C8F80050C8F8043000F3BE
:1019B000E482189B199A01361C44072EC7E90023BC
:1019C000CDE9336400F3CD820837139BDDE91601BE
:1019D00003F1FF380022002305F0E8F8002840F06A
:1019E0001581013601354444072ECDE933643D604D
:1019F000C7F8048000F3FE8008371C9B7B6001362B
:101A00001C44072E2CABCDE933643B60AADC07F104
:101A100008085CE44C460A2B72F1000180F0B982A0
:101A200030338DF87731A1464FF0010B0DF2771569
:101A3000CAE6DDE9071032AA159301F017F900286C
:101A40007FF470AF349C159B0DF1D40812E4DDE9EE
:101A5000071032AA01F00AF900287FF463AF349C22
:101A60000DF1D40818E4102D339B40F35287BB4F7F
:101A70001597DDE907A9102604E0103D102D08F1A7
:101A8000080816DD01331034072BC8E90076CDE9CC
:101A90003334F2DD32AA514648460DF1D40801F044
:101AA000E5F8002840F0F582103D102DDDE93334D3
:101AB000E8DC0133159A2C44072BC8E90025CDE951
:101AC00033347FF70DACDDE9071032AA01F0CEF810
:101AD00000287FF427AF349C02E4299A002A40F3BF
:101AE000FD80DDE912739F42A8BF1F46002F05EB62
:101AF000030B0BDD339B01333C44072BC8E9005734
:101B00003494339300F36F8608F10808129E002F77
:101B1000A8BFF61B002E00F34783DDF848A019F498
:101B2000806FAA4440F07A85299D139B9D4203DB78
:101B300019F0010F00F00484189B199A1C44C8E99D
:101B40000023339B34940133072B339300F35A86DD
:101B500008F10808139BABEB0A065D1BAE42A8BF59
:101B60002E46002E0DDD339BC8F800A0013334440F
:101B7000072BC8F804603494339300F3558608F1BA
:101B80000808002EA8BFAD1B002D7FF7A0AB102DBD
:101B9000339B40F3DA82724F1597DDE907AB1026CD
:101BA00005E008F10808103D102D40F3D082013304
:101BB0001034072BC8E90076CDE93334F1DD32AAC1
:101BC0005146584601F052F800287FF407ABDDE992
:101BD00033340DF1D408E6E719F0010F7FF4DFAEDE
:101BE0000123072ECDE93364C8F80050C8F804304B
:101BF0007FF703AFDDE9071032AA01F037F80028BC
:101C00007FF490AEDDE9336435AFF6E6139B012B2C
:101C10007FF7F3AE112B524B159340F3B982CDF8F9
:101C20002490DDE907BA1025994606E00837A8F1A7
:101C30001008B8F1100F40F3A98201361034072EB6
:101C4000C7E90095CDE93364F0DD32AA5946504624
:101C500001F00CF8002840F00282DDE9336435AF72
:101C6000E5E7DDE9071032AA01F000F800287FF46B
:101C700059AE349C0DF1D408FFF717BB0D9951F8FC
:101C8000043B0D9114F0100155D114F040004DD0DB
:101C90000A469BB20121B7E40D9951F8043B0D911E
:101CA00019F010017FF4ADAC19F0400000F0A982EA
:101CB0009BB20A46A5E4079DA86DFEF7C1FBB5F9E6
:101CC0000C30FFF759B919F0010F3FF400AB2BE5C9
:101CD0000D932378FFF7A2B95EAD75E5339B2149DB
:101CE000C8F80010013301340121072B34943393D9
:101CF000C8F8041000F3518508F10808002A7FF4A1
:101D000014AE139A09F0010313433FF4E0AA189BA1
:101D1000199A1C44C8E90023339B34940133072BE0
:101D2000339300F3CD8308F108080FE614F4007232
:101D30001CBFDBB20246012166E419F4007F40F0CB
:101D40000783DA1711460029BFF6DBAB5B4262EB73
:101D500042024C462D20012157E400BFCC700110F7
:101D6000BC700110B87001101B9A2378002A3FF450
:101D700055A91278002A3FF451A949F48069FFF768
:101D80004DB919F0100F40F0FB8119F0400F40F0F1
:101D9000E58219F4007F00F0F3810D9B0A9A1B681D
:101DA0001A709BE4DDE9160102460B4604F030FF91
:101DB000002840F038860E9B612B00F02185412BD6
:101DC00000F0E382099B013300F017860E9B23F09D
:101DD0002003472B04D1099B002B08BF0123099343
:101DE000DDE9161249F48070002A1590CDF818909C
:101DF0004FF00003C0F2DF84CDE924121F930C934F
:101E00000E9B413B252B00F20382DFE813F07403A5
:101E10000102010201026D037103010201020102CC
:101E2000010201020102010201020102010201029A
:101E3000010201020102010201020102010201028A
:101E4000010201020102010201020102010201027A
:101E50000102010201026D037103CDE90E34C34B8F
:101E60001A9319F020026AD00D9B073323F0070361
:101E700019465A6851F8083B0D9119F0010F0AD024
:101E800053EA020107D00E998DF8A110302149F0D4
:101E900002098DF8A01029F480640221FFF7B4BB79
:101EA000CDE90E344C46FFF7D0BBCDE90E34FFF739
:101EB0009BBBCDE90E34AE4B1A93D2E7DDE9071098
:101EC00032AA00F0D3FE00287FF42CAD349C0DF133
:101ED000D408FFF7E4B9DDE9071032AA00F0C6FE26
:101EE00000287FF41FAD349C0DF1D4082AE4099B2F
:101EF0000C95062B294628BF062309952A460693EA
:101F00009C4D0D969B46149110911291FFF740BA8B
:101F10000822002130A8FEF701FA0D9B08981A68E4
:101F200045AD30AB294601F081FFB0F1FF3F83465C
:101F300000F0448520EAE0730693FFF793BA0D9909
:101F400051F8043B0D9119F0100196D119F04000A1
:101F500000F051819BB20A468FE7DDF824B05EADF8
:101F600032E4DDE9071032AA00F080FE00287FF499
:101F7000D9ACDDE9336435AF27E5DDE9071032AAD6
:101F800000F074FE00287FF4CDACDDE9336435AF9A
:101F90000FE504F4806B0021CDF83080DFF8D89194
:101FA000DDF86C8006945EAD4FF0CC3A05278C4688
:101FB0005E4605E00A2B72F1000233D35B462246EF
:101FC000991841F10001A9FB010424F0030000EB82
:101FD0009400091A581A62F1000E0AFB00F4A0FBE3
:101FE00009B009FB0E440BF0010E0444AEFB070ED2
:101FF00040184FEA5B0B303005F8010C4BEAC47B0C
:102000000CF1010C013D6408002ED3D098F80010AB
:102010008C45CFD1BCF1FF0FCCD00A2B72F100025E
:1020200080F0C582CDF86C80069CDDF83080CDF85C
:102030004CC0FFF7C5BBDDE9071032AA159300F0CD
:1020400015FE00287FF46EAC9DF89F20349C159BF4
:102050000DF1D408FFF7FCB8A346FFF7BFB8D3468D
:10206000FFF7BCB85846FEF7C7FAFEF77CBF012958
:102070004C467FF495ABD3E4DDE9071032AA00F0BB
:10208000F5FD00287FF44EAC349C0DF1D408FFF729
:1020900046BBCB46FFF7A2B830AF08220021384636
:1020A0002B95FEF73BF9DDF824A0BAF1FF3F00F0D5
:1020B00070820024CDF81890A346DDF820900CE043
:1020C00045A9484601F0B2FE411C584400F0768410
:1020D000504508DC00F0C38483462B9A12593B46D6
:1020E0000434002AECD1DDF81890BBF1000F00F0A9
:1020F0004383BBF1630F40F3FA8308980BF10101AE
:10210000FDF748FE0546002800F058840C90082290
:1021100000213846FEF702F9089800975B462BAA83
:10212000294601F0E1FF834540F01985002305F8B9
:102130000B302BEAEB719DF89F200D9609930691C9
:10214000149310931293FFF723B90C4A159201339D
:10215000159AC8F800202C44072BC8F80450CDE984
:1021600033347FF7B2A8FFF7FDBB00BF9C700110AE
:1021700088700110B0700110CDCCCCCCBC700110B7
:102180000D9B0A9A1B681A60FFF7A8BADDF8249025
:10219000159B3B6001364444072ECDE93364C7F8F4
:1021A00004807FF729AC25E5102E339B40F3AD84E6
:1021B0009848159042462146A846DDE9074A10276F
:1021C000054604E00832103E102E40F3CA81013368
:1021D0001031072BC2E90057CDE93331F2DD32AAC5
:1021E0002146504600F042FD00287FF438AFDDE97B
:1021F000333135AAE7E719F400721CBFDBB202469F
:102200003BE619F400721CBFDBB20246FFF7F9B9D6
:10221000099E0223CDE9003630AB04932BAB039328
:1022200029AB02930898DDE9242302F001F80E9B04
:10223000672B054600F077810E9B472B00F07381DA
:102240000E9B23F02007462F00EB060405D10378F0
:10225000302B00F0DB83299E3444DDE92401002289
:10226000002304F0A3FC002800F0CC8123465B1B74
:102270001393299A1292472F00F05D81462F00F0A8
:10228000E3820E99531E6129299300F0418441296C
:1022900040F05C8150210120002BB6BFC2F1010348
:1022A0002B222D22092B8DF8B0108DF8B12040F390
:1022B00077830DF1C704584E22461046A6FB031241
:1022C000D20802EB8201A3EB4101303100F8011C7E
:1022D00019466329134600F1FF32EEDC303302F871
:1022E000013C831EA34280F00C840DF1B10213F86F
:1022F000011B02F8011FA342F9D15EAB181AA0F12D
:10230000AD031C93139B1C9A012B03EB020B40F3B0
:102310007883189B9B44069B23F4806343F4807965
:102320002BEAEB72002314930692109312931F9BD7
:10233000002B40F00F819DF89F200993FFF728B8EC
:10234000139BABEB0A065D1BAE42A8BF2E4618E4FA
:1023500043F3C01211465BB2FFF7D0B80D9B0A9A47
:102360001B681A80FFF7BAB9079932AA584600F0DD
:102370007DFC00283EF422AFFEF736BF28460D96BE
:10238000FEF7FEF98346FFF79CB858238DF8A1307D
:1023900030238DF8A03049F002030693099B632B8C
:1023A00000F3F68200230C9345AD49F48173159335
:1023B000179B002BC0F2008200231F93DDE9163427
:1023C000CDE924340E9B612B7FF41AAD29AADDE9F7
:1023D000240102F075FF00224FF07F5304F07EF9D4
:1023E00002460B46CDE910230022002304F0DEFB59
:1023F000002840F0F882094B1293099BCDF84C80DD
:1024000003F1FF392E461495DDF848B04D46DDE95D
:1024100010890BE0BC700110CDCCCCCC88700110C1
:102420000022002304F0C2FBF0B93D46A94B002274
:102430004046494604F052F98946804604F0FEFBC6
:10244000044604F0E1F802460B464046494603F0D4
:102450008DFF1BF804306A1CB24605F1FF3706F801
:10246000013B80468946DBD1CB465746C2469A4B54
:10247000DDF84C80002250465946A946149D04F0D0
:10248000BDFB002840F06482934B50465946002221
:1024900004F08CFB10B1E30700F15A82B9F1000F90
:1024A000C0F2708209F101033344302206F8012B97
:1024B000B342FBD15B1B13930E9B23F02007D8E69E
:1024C000DDE9071032AA00F0D1FB00287FF42AAA28
:1024D000DDE93334299A0DF1D408FFF734BA886D59
:1024E000FDF7B0FFFEF73CBE099B5E1C022391E6A0
:1024F000099E03238EE629AADDE9240102F0E0FE0D
:1025000000224FF07F5304F0E9F802460B46CDE974
:1025100010230022002304F049FB002840F06382CE
:102520006E4B129369E7069BDF0700F1E481309B55
:10253000299A5B1B1393D31C129202DB099B9342D3
:1025400044DA0E9B023B0E93531E29939DF83810DC
:102550000020A1E62D2200238DF89F200993FEF78D
:102560001ABF45460C4690460133159AC8F800201C
:102570003444072BCDE93334C8F8046000F32682D5
:1025800008F10808FFF7C9BA2D228DF89F20FEF741
:10259000EEBE0023089800972BAA194601F0A4FD6F
:1025A000B0F1FF3F834600F009822B959DE51E9B0D
:1025B0001D99ED1A1A46284603F05CF898F8013088
:1025C0000BB108F101084FF0000CF7E4139B9342A4
:1025D00000F39481069BDC0740F14A82189B02EBD2
:1025E000030B069B580502D5002A00F34A822BEA0A
:1025F000EB730693DDF8549067230E930023149336
:10260000109394E6309BA342BFF431AE30215A1CA4
:1026100030921970309B9C42F9D828E6109BCDF877
:1026200024B0CDF83890424621462D4FDDF8509029
:10263000DDF87880DDF820B05446DDF86CA07BB37F
:10264000B9F1000F00F0858009F1FF3933981D9B27
:10265000013041440728C2E90038349133906DDCE1
:102660000832099B9AF800001E1B8642A8BF064646
:10267000002E0BDD3398013031440728C2E90046B3
:10268000349133906BDC9AF800000832002EACBF16
:10269000851B0546002D14DC0444109B002BCFD174
:1026A000B9F1000FD0D1DDF824B0CDF86CA0A2466E
:1026B000DA45DDF8389090460C4628BFDA46FFF739
:1026C00033BA102D339840F31A8223463E462C46E7
:1026D0001D460CE0000030400000E03F9C700110FF
:1026E000BC700110103C102C02F1080216DD013004
:1026F000103110230728CDE9330117605360F1DD55
:10270000079932AA584600F0B1FA00287EF466AD67
:10271000103C102CDDE9330135AAE8DC2B462546B8
:102720001C46013029440728CDE933011660556065
:102730004BDC9AF8000008320444AEE7079932AA4D
:10274000584600F093FA00287EF448AD349935AA33
:1027500087E7109B013B0AF1FF3A109376E7079950
:1027600032AA584600F082FA00287EF437AD9AF873
:102770000000349935AA89E79DF89F200D96CDF881
:1027800018B0CDF824B0CDF850B0CDF840B0CDF8A9
:1027900048B0CDF830B0FEF7FBBDDDE9071032AA36
:1027A00000F064FA00287FF4BDA8299A349C0DF14A
:1027B000D408FFF7A3BA0C93DDE91634249304F18F
:1027C000004325932D231F93FCE5079932AA584611
:1027D00000F04CFA00287EF401AD9AF8000034991C
:1027E00035AA044459E7DDE9071032AA00F03EFAA1
:1027F00000287FF497A8349C0DF1D408FFF786B920
:102800007823C3E5DDE9071032AA00F02FFA00288B
:102810007FF488A8299D349C0DF1D408FFF79AB95C
:10282000AB491591FEF7EBBDDDE9071032AA00F0C8
:102830001DFA00287FF476A8299D139B349C5D1B0C
:102840000DF1D408FFF79DB9069B1299099A03F080
:102850000103002943EA020340F35D81002B40F0AD
:1028600009816623DDF848B00E93069B5A0500F1F6
:102870000A812BEAEB73DDF854900693BEE6002242
:102880000992FEF7CCBB079B5B6EDF0707D4079B63
:102890009B899E0503D4079B986DFDF7D3FD4FF0F0
:1028A000FF330A93FEF7ABBC56421032894A1592A9
:1028B00034DAAA461027154604E008F10808103E4D
:1028C000102E2ADD01331034072BC8E90057CDE95B
:1028D0003334F2DDDDE9071032AA00F0C7F9002831
:1028E0007FF420A8DDE933340DF1D408E7E70023B5
:1028F0000C9345AD0BE4AC194727AEE4139B189A33
:1029000003EB020B129B002B40F3EE8067230E9328
:10291000ABE76F4A1592FFF7CCB855460133159ACD
:10292000C8F800203444072BCDE93334C8F80460DC
:102930007FF7F9A9DDE9071032AA00F097F900281E
:102940007EF4F0AFDDE933340DF1D408FEF7FEBFBD
:10295000129B3097D97B16F8012C8A42334609D155
:10296000302003F8010C309B5A1E309213F8012CD2
:102970009142F6D0392A0BBF129A0132927AD2B222
:1029800003F8012C334695E5524A1592FEF776BFBF
:102990000898591CFDF7FEF9054678B10C9004E53E
:1029A000002862D130228DF8B2200DF1B30230330D
:1029B00002F8013B2CABD31A1C93A3E4079AB2F99B
:1029C0000C3043F040039381FEF711BCDDE90710A2
:1029D00032AA00F04BF900287EF4A4AF349C0DF12C
:1029E000D408FFF79AB83C4B3C4A0E99612918BFAE
:1029F0001A46012312922993FFE406230993FFF755
:102A0000EFB9069BDE077FF586AC82E4DDE92401A1
:102A10000022002304F0CAF800287FF41CACC6F1A1
:102A20000106299618E4179B2D4D002BB4BF2D22CB
:102A30009DF89F202B4BB8BF8DF89F2029F080096F
:102A4000FEF799BC099B06939B4673239DF89F2034
:102A50000D960990149010900E93FEF799BCDDF836
:102A60001890DDF824B0FFF740BB0DF1B2029EE7ED
:102A70009346B6E5189BCF183A44662393460E93C7
:102A8000F3E667230E931B990B78FF2B63D000248A
:102A9000129A204603E001300131FF2B08D0934207
:102AA00006DAD21A4B78002BF5D10B780134F4E713
:102AB0001B91129210901494DDE91439109A13446A
:102AC0001E9A02FB03BB2BEAEB7306932FE400BFB5
:102AD000CC700110BC7001109C7001108870011046
:102AE0008070011084700110C3F101039B442BEA34
:102AF000EB7306936723DDF854900E937EE51C4E2E
:102B00000FE602231C93FFF7FDBB194A15922BE534
:102B10007021FFF7C0BBDDF8549033B94FF0010BC3
:102B20006623CDF818B00E9368E5189BDDF824B045
:102B30005F1CBB442BEAEB73069366230E935DE5A3
:102B40000D9A63780C4652F8041B0D9241EAE1712C
:102B50000991FEF763BA002314931093ACE7DDE903
:102B6000072B938943F040039381FEF737BB00BFE7
:102B7000BC700110F0B51F468B89ADF26C4D23F08F
:102B80000203ADF80C304B6E1993CB89ADF80E30C3
:102B9000CB6907934B6A09931AAB009304934FF4E4
:102BA0008063154606460293059316A800230C463B
:102BB0000693FDF741FC2A463B4669463046FEF740
:102BC000B5F9051E07DB6946304602F0FBFA00281E
:102BD00018BF4FF0FF35BDF80C305B0603D5A38955
:102BE00043F04003A3811698FDF728FC28460DF218
:102BF0006C4DF0BD2DE9F84F4B6E9C0490462ED5E0
:102C0000936812684BB30D46064602F1080959E96C
:102C1000022A5FEA9A0716D0A2F1040B002401E011
:102C2000A7420ED05BF8041F2A46304602F0E8FDAA
:102C3000431C04F10104F3D10023C8E90133BDE8CA
:102C4000F88FD8F808302AF0030AA3EB0A03C8F873
:102C5000083009F10809002BD9D10020ECE7FDF775
:102C6000AFFF0023C8E90133BDE8F88F10B49468C2
:102C700014B110BCFFF7BEBF2046546010BC7047B3
:102C80002DE9F04FC7B016AF83460391069200219D
:102C9000082238461C460A93FDF740FBBBF1000FA3
:102CA00004D0DBF83430002B00F0BB86039A536E5F
:102CB000B2F90C20DB0702D4960540F19F859504FC
:102CC00007D403994B6E42F4005223F400538A81D7
:102CD0004B66100740F1C980039B1B69002B00F075
:102CE000C48002F01A030A2B00F0CE800023CDE945
:102CF0001B33CDE90E331DAADFF860A20D931A92A3
:102D0000914610930793069DDAF8E44001F0B4F879
:102D10002A46034614A900975846A047002800F009
:102D2000D280C0F2C880149A252A034601D01D44DF
:102D3000EAE7069BEE1A044640F0C98000234FF0F4
:102D4000FF316A788DF84B3008936C1C0591029323
:102D50000134A2F120035A2B00F20281DFE813F0C4
:102D6000030300010001FD020001000100016B00EE
:102D70000001000118022D030001230213030001CA
:102D80000D035B005B005B005B005B005B005B00B6
:102D90005B005B0000010001000100010001000177
:102DA000000100010001CE015D02000100010001EF
:102DB00000010001000100010001000100012902E1
:102DC000000100010001A6010001760200010001DE
:102DD0008E05000100010001000100010001000159
:102DE000000100010001CE01F3010001000100011A
:102DF000C402F3017F00000132030001EE028B05E3
:102E0000CD027F000001A6017D00880500010001C0
:102E1000B10500017D00A2F130030022114614F833
:102E2000012B01EB810103EB4101A2F13003092BDE
:102E3000F5D908918DE7584601F024F843681093BE
:102E40001846FDF79DFC0F900546584601F01AF80C
:102E500083680E93002D40F0E584227878E7029B8A
:102E6000227843F02003029372E7039D58462946D7
:102E700001F06CF8002840F0A686B5F90C2002F0AD
:102E80001A030A2B7FF432AF0399B1F90E30002BED
:102E9000FFF62CAF4B6EDB0702D4970540F15E8640
:102EA000069A03992346584600F0C0FE07900798FB
:102EB00047B0BDE8F08F082200213846FDF72EFA12
:102EC00001231D4420E7069BEE1A044612D0069B00
:102ED0001C9AC9E900361B9B01333244072B1C9214
:102EE0001B9311DC09F10809079B33440793002C5D
:102EF0007FF424AF1C9B002B40F05086039B0022E4
:102F0000B3F90C301B921CE0002A00F02F840399C7
:102F10001AAA5846FFF76EFE80B90DF17409E3E76F
:102F200003991AAA5846FFF765FE002800F0A98009
:102F30000B9B1BB10B995846FDF7EAFC039BB3F9B9
:102F40000C30039A526ED10740F1A6805B0600F167
:102F50004686079847B0BDE8F08F00BF4C050020BB
:102F60000694002AC6D000238DF84B3001238DF83B
:102F7000B420049309932DAC00230B930593029B7B
:102F800013F0020302D0049A02320492DDE91B2CF2
:102F9000029D501C15F0840501460C9505D1089D35
:102FA000049EAD1B002D00F331839DF84B0088B1CA
:102FB00001220CF1010CC9F8042007290DF14B0284
:102FC000CDE91B1CC9F8002000F3E1820A4609F193
:102FD00008090131EBB113AB0CF1020CC9F8003058
:102FE00007294FF00203CDE91B1CC9F8043040F358
:102FF000EC82BCF1000F00F0DA8303991AAA58465C
:10300000FFF7F8FD002893D1DDE91B2C0DF17409C1
:10301000511C0C9B802B00F01382059B09981D1AF4
:10302000002D00F36882099AC9F8004002EB0C03F6
:103030000729CDE91B13C9F8042040F3FE81002BBA
:1030400000F02B8303991AAA5846FFF7D3FD0028F6
:103050007FF46EAF1C9B0DF17409029A500705D5E1
:10306000089A0499541A002C00F32283DDE9072101
:1030700004988142ACBF521812180792002B7FF4BB
:103080004FAF00231B930B9B1BB119465846FDF70E
:103090003FFC0DF1740936E69A053FF557AF039CE6
:1030A000A06DFDF7CFF9B4F90C304FE70A9E0694F6
:1030B00056F8044B00238DF84B30002C00F0C984E7
:1030C000532A00F02184029B13F0100540F01C8469
:1030D000059B5A1C00F04E851A462946204602F0F0
:1030E0009FF80B90002800F03E85031B099323EA0C
:1030F000E37305950A9604930B958DE10A9B06945C
:10310000432A03F1040503D0029BDE0640F1E48369
:103110000822002118A8FDF701F90A9B2DAC1A68B6
:10312000214618AB584600F081FE03460133099052
:1031300000F04185099B23EAE373049300230A9579
:103140008DF84B3018E7029B06949C066DD50A9BC0
:10315000073323F0070319465A6851F8083B0A91D0
:103160001146002AC0F23781059A013200F04081F1
:10317000029A22F08002029253EA010240F0388162
:10318000059B002B40F008850493099346AC41E170
:103190000A9B53F8042B0892002A80F22783089A8E
:1031A0000A9352420892029B227843F0040302934E
:1031B000CEE5029B069443F0100212F0200100F0CD
:1031C000E7820A9B073323F007031846596850F833
:1031D000083B0A9022F480640294059C002001348C
:1031E0008DF84B005DD053EA010422F4906240F068
:1031F0001484029C0292059B002B4AD1002840F0C7
:10320000F08214F00102099200F0F48230238DF86C
:10321000173104920DF21714FCE0029B069443F060
:1032200010030293029B9C0691D40A9A52F8043B25
:103230000A92029AD00600F1F282029A510640F1F7
:10324000EA8243F3C0310A461BB28AE7029B069426
:1032500043F0100414F0200100F08B820A9B073326
:1032600023F007031A46596852F8083B0A920022D5
:103270008DF84B20059A013200F0D18324F08002B2
:10328000029253EA010240F0B380059B0120002B1B
:10329000B4D0012800F0808400230228194600F0F1
:1032A000998146AC03F00702DB0843EA4173C90881
:1032B000303253EA0105204604F8012DF2D1029B79
:1032C000DD0740F19581302A00F092813023059A84
:1032D00004F8013C023846AB1B1A9A42B8BF1A46A2
:1032E00009930446049295E02278029B682A00F034
:1032F0009D8343F0400302932AE5029B0A9A0694B9
:1033000043F00203029352F8043B0A9247F630025C
:10331000ADF84C20BB4A0D92002100228DF84B20C5
:10332000059A013200F05681029C53EA010024F014
:103330008002029240F04E8102205CE7029B0694DC
:103340009E0640F17E820A9B079A1B681A60D2177C
:103350005A600A9B04330A93D5E4029B227843F017
:1033600001030293F4E49DF84B302278002B7FF4A4
:10337000EFAC20238DF84B30EAE4029B227843F037
:1033800080030293E4E4214611F8012B2A2A00F07D
:103390003384A2F13003092B0C4600F2F68300229D
:1033A000114614F8012B01EB810103EB4101A2F15D
:1033B0003003092BF5D90591CBE42B2322788DF826
:1033C0004B30C5E42278029B6C2A00F0368343F030
:1033D00010030293BCE42D228DF84B20059A5B422A
:1033E00061EB4101013203D0029A22F08002029285
:1033F0000A2B71F1000280F0BD823033DBB28DF810
:103400001731059B012BB8BF0123049301230993B6
:103410000DF2171400230B939DF84B30002B3FF453
:10342000AEAD049B01330493A9E5099B1D940122D1
:103430001E931C931B920DF1740909F108090CE607
:10344000089B04981D1A002D7FF7E7AD102D40F35F
:10345000CB83DFF8B48143461026A04661461C4664
:1034600007E002F1020C09F108090246103D102D97
:103470001ADD501C10310728C9E90046CDE91B01AF
:10348000EFDD1AAA00297CD0039958460DF1740982
:10349000FFF7B0FB00287FF44BADDDE91B21103DA9
:1034A000102D02F1010CE4DC2346604644468C46B4
:1034B0009846AC440728CDE91B0CC9F80080C9F830
:1034C000045040F3A381BCF1000F00F0278303995F
:1034D0001AAA5846FFF78EFB00287FF429AD059BFA
:1034E0000998DDE91B2C1D1A002D02F101010DF1D7
:1034F00074097FF798AD102DDFF80C812DDD2B4678
:103500001026254660461C4607E002F1020C09F130
:1035100008090A46103C102C1ADD511C3A4B103099
:103520000729C9E90036CDE91B10EEDD1AAA10B350
:10353000039958460DF17409FFF75CFB00287FF4EE
:10354000F7ACDDE91B20103C102C02F1010CE4DC8F
:10355000234661462C4684461D46AC440729CDE9E6
:103560001B1CC9F80080C9F8045000F3EC8009F175
:103570000809013157E54FF0010C02460DF17409BD
:10358000C8E74FF0010C0A460DF174096EE7BCF173
:10359000000F0FD0039911931AAA5846FFF72AFB80
:1035A00000287FF4C5ACDDE91B2C119B511C0DF1EB
:1035B00074090FE5002B00F0558102231E939C46F1
:1035C00013AB1D9301210DF174090A4609F1080995
:1035D00001311EE50D9846AC03F00F021B09825C19
:1035E00004F8012D43EA0173090953EA0102F3D1FA
:1035F000059A46AB1B1B9A42B8BF1A460993049220
:1036000008E700BF88700110DC700110102D40F336
:10361000C082AE4E119349464FF01008A146344681
:10362000664607E002F1020E08310246103D102DF9
:1036300018DD501C10360728C1E90048CDE91B06EB
:10364000F0DD03991AAA584616B3FFF7D3FA0028FB
:103650007FF46EACDDE91B26103D102D02F1010E4A
:103660001DA9E6DC119BB44626464C468946AC446F
:10367000BEF1070FCDE91BECC9F80060C9F8045092
:1036800000F39A8009F108090EF1010172468CE4F9
:1036900032464FF0010E1DA9C8E7029A1B9354074A
:1036A00048D5089A0499541A002C43DD0DF1740989
:1036B000102C1B9940F37C82844EDDF80C80102581
:1036C00006E0881C09F108091146103C102C19DD90
:1036D0004A1C1033072AC9E90065CDE91B23F0DD38
:1036E0001AAA13B341465846FFF784FA00287FF41C
:1036F0001FACDDE91B13103C102C01F101000DF192
:103700007409E5DC23440728C9E90064CDE91B03FB
:103710007FF7ACAC73B103991AAA5846FFF76AFA5F
:1037200000287FF405AC1C9BA0E4012019460DF194
:103730007409CAE7DDE9073204998A42ACBF9B18D5
:103740005B1807939DE4BCF1000F3FF46EAE039944
:103750001AAA5846FFF74EFA00287FF4E9AB1B99E6
:10376000DDF870C001310DF174095CE41B92FFF7C4
:10377000D4BB0A9A52F8043B0A9214F010027FF468
:1037800076AD14F0400000F06E819BB211466EE5FC
:103790000A9850F8043B0A9012F010007FF41AAD1A
:1037A00012F0400400F067819BB2014612E501214E
:1037B00062460DF174092CE4BCF1000F00F0958015
:1037C000039911931AAA5846FFF714FA00287FF4B8
:1037D000AFABDDE91B2C119B511C0DF17409FFF7F8
:1037E000E4BB059B0493099346AC13E622780A9345
:1037F000FFF7AEBA059B049346AC0BE6039DA86D9C
:10380000FCF71EFEB5F90C20FFF759BA09F10809BB
:10381000411C024601E4029A920500F18581D91704
:103820000A469EE40E9B2278002B3FF491AA1B7857
:10383000002B3FF48DAA029B43F480630293FFF7B1
:1038400087BA029BDD0600F1FF80029B5C0600F157
:103850007781029B980540F1F7800A9B079A1B68C5
:103860001A7076E5624601210DF17409FFF7D1BBAC
:103870000694029CEEE4029A06949EE4144B06948D
:103880000D93029B13F0200164D00A9B073323F0B1
:1038900007031846596850F8083B0A90029CE6074F
:1038A0000AD553EA010007D08DF84D2044F00202FA
:1038B000029230228DF84C20029A22F48062029209
:1038C0002BE5044B06940D93DBE700BFEC70011071
:1038D0009C700110887001100A9B1B688DF8B43031
:1038E0000123049309932DAC28E49DF84B20002A72
:1038F00000F0208101210DF14B021E911D920DF16E
:1039000074098C46FFF762BB0822002118A81594A1
:10391000FCF704FDDDF81480B8F1FF3F00F0B9803A
:10392000002504942C460CE02DA9584600F07EFAA0
:10393000411C204400F03F81404508DC00F05881E4
:103940000446159A525918AB0435002AECD1099453
:10395000049CACE00A9850F8043B0A90029810F0DE
:1039600010009BD1029911F0400400F08B809BB2B3
:10397000014693E7029ACDF8109046AC02F48062BB
:10398000A146CDF824B0A54EDDF838B04FF0000CBC
:10399000144605E00A2B71F1000136D3434629464F
:1039A0005A1842F10002A6FB020525F0030000EBC5
:1039B0009500121A981A4FF0CC3561F1000E05FBF4
:1039C00000F506FB0E55A0FB0680054408F0010E2D
:1039D0000520AEFB000E80184FEA5808303009F879
:1039E000010C48EAC5780CF1010C09F1FF396D08AA
:1039F000002CCFD09BF800206245CBD1BCF1FF0F4B
:103A0000C8D00A2B71F1000172D2CDF838B04C4603
:103A1000DDF824B0DDF81090EAE5029241E402946A
:103A2000E6E45846FCF7E8FDFFF740B943F40073BD
:103A3000627802930134FFF78BB943F02003627878
:103A400002930134FFF784B90A9B079A1B681A6036
:103A50007FE4059B724C062B28BF0623CDE909366F
:103A60000493FFF789BA14F400713FF400ACDBB2A1
:103A70000146FFF7FCBB12F400711CBFDBB221460C
:103A8000FFF7A8BB029911F400711CBFDBB22146FD
:103A900004E718AB00930023194615AA584600F016
:103AA00023FB03460133099000F085801594099BA0
:103AB00073B3632B49DC00230B932DAC0822002148
:103AC00018A8FCF72BFC099D18AB009315AA2B46F0
